{
  "_format": "hh-sol-artifact-1",
  "contractName": "Keyboards",
  "sourceName": "contracts/Keyboards.sol",
  "abi": [
    {
      "anonymous": false,
      "inputs": [
        {
          "components": [
            {
              "internalType": "enum Keyboards.KeyboardKind",
              "name": "kind",
              "type": "uint8"
            },
            {
              "internalType": "bool",
              "name": "isPBT",
              "type": "bool"
            },
            {
              "internalType": "string",
              "name": "filter",
              "type": "string"
            },
            {
              "internalType": "address",
              "name": "owner",
              "type": "address"
            }
          ],
          "indexed": false,
          "internalType": "struct Keyboards.Keyboard",
          "name": "keyboard",
          "type": "tuple"
        }
      ],
      "name": "KeyboardCreated",
      "type": "event"
    },
    {
      "anonymous": false,
      "inputs": [
        {
          "indexed": false,
          "internalType": "address",
          "name": "recepient",
          "type": "address"
        },
        {
          "indexed": false,
          "internalType": "uint256",
          "name": "amount",
          "type": "uint256"
        }
      ],
      "name": "TipSent",
      "type": "event"
    },
    {
      "inputs": [
        {
          "internalType": "enum Keyboards.KeyboardKind",
          "name": "_kind",
          "type": "uint8"
        },
        {
          "internalType": "bool",
          "name": "_isPBT",
          "type": "bool"
        },
        {
          "internalType": "string",
          "name": "_filter",
          "type": "string"
        }
      ],
      "name": "create",
      "outputs": [],
      "stateMutability": "nonpayable",
      "type": "function"
    },
    {
      "inputs": [
        {
          "internalType": "uint256",
          "name": "",
          "type": "uint256"
        }
      ],
      "name": "createdKeyboards",
      "outputs": [
        {
          "internalType": "enum Keyboards.KeyboardKind",
          "name": "kind",
          "type": "uint8"
        },
        {
          "internalType": "bool",
          "name": "isPBT",
          "type": "bool"
        },
        {
          "internalType": "string",
          "name": "filter",
          "type": "string"
        },
        {
          "internalType": "address",
          "name": "owner",
          "type": "address"
        }
      ],
      "stateMutability": "view",
      "type": "function"
    },
    {
      "inputs": [],
      "name": "getKeyboards",
      "outputs": [
        {
          "components": [
            {
              "internalType": "enum Keyboards.KeyboardKind",
              "name": "kind",
              "type": "uint8"
            },
            {
              "internalType": "bool",
              "name": "isPBT",
              "type": "bool"
            },
            {
              "internalType": "string",
              "name": "filter",
              "type": "string"
            },
            {
              "internalType": "address",
              "name": "owner",
              "type": "address"
            }
          ],
          "internalType": "struct Keyboards.Keyboard[]",
          "name": "",
          "type": "tuple[]"
        }
      ],
      "stateMutability": "view",
      "type": "function"
    },
    {
      "inputs": [
        {
          "internalType": "uint256",
          "name": "_index",
          "type": "uint256"
        }
      ],
      "name": "tip",
      "outputs": [],
      "stateMutability": "payable",
      "type": "function"
    }
  ],
  "bytecode": "0x608060405234801561001057600080fd5b50610f9d806100206000396000f3fe60806040526004361061003f5760003560e01c806352810aa114610044578063778bc8471461006f578063d80ad431146100af578063e8b69bc3146100d8575b600080fd5b34801561005057600080fd5b506100596100f4565b604051610066919061089d565b60405180910390f35b34801561007b57600080fd5b50610096600480360381019061009191906108ff565b610291565b6040516100a694939291906109a3565b60405180910390f35b3480156100bb57600080fd5b506100d660048036038101906100d19190610aa5565b610393565b005b6100f260048036038101906100ed91906108ff565b61053f565b005b60606000805480602002602001604051908101604052809291908181526020016000905b8282101561028857838290600052602060002090600302016040518060800160405290816000820160009054906101000a900460ff1660038111156101605761015f610638565b5b600381111561017257610171610638565b5b81526020016000820160019054906101000a900460ff161515151581526020016001820180546101a190610b48565b80601f01602080910402602001604051908101604052809291908181526020018280546101cd90610b48565b801561021a5780601f106101ef5761010080835404028352916020019161021a565b820191906000526020600020905b8154815290600101906020018083116101fd57829003601f168201915b505050505081526020016002820160009054906101000a900473ffffffffffffffffffffffffffffffffffffffff1673ffffffffffffffffffffffffffffffffffffffff1673ffffffffffffffffffffffffffffffffffffffff168152505081526020019060010190610118565b50505050905090565b600081815481106102a157600080fd5b90600052602060002090600302016000915090508060000160009054906101000a900460ff16908060000160019054906101000a900460ff16908060010180546102ea90610b48565b80601f016020809104026020016040519081016040528092919081815260200182805461031690610b48565b80156103635780601f1061033857610100808354040283529160200191610363565b820191906000526020600020905b81548152906001019060200180831161034657829003601f168201915b5050505050908060020160009054906101000a900473ffffffffffffffffffffffffffffffffffffffff16905084565b600060405180608001604052808660038111156103b3576103b2610638565b5b8152602001851515815260200184848080601f016020809104026020016040519081016040528093929190818152602001838380828437600081840152601f19601f8201169050808301925050505050505081526020013373ffffffffffffffffffffffffffffffffffffffff168152509050600081908060018154018082558091505060019003906000526020600020906003020160009091909190915060008201518160000160006101000a81548160ff0219169083600381111561047d5761047c610638565b5b021790555060208201518160000160016101000a81548160ff02191690831515021790555060408201518160010190816104b79190610d54565b5060608201518160020160006101000a81548173ffffffffffffffffffffffffffffffffffffffff021916908373ffffffffffffffffffffffffffffffffffffffff16021790555050507f10a5f72cc15ad697630d0470547e58335ec196e4ce08851d095d19398b1cbdd7816040516105309190610e89565b60405180910390a15050505050565b600080828154811061055457610553610eab565b5b906000526020600020906003020160020160009054906101000a900473ffffffffffffffffffffffffffffffffffffffff1690508073ffffffffffffffffffffffffffffffffffffffff166108fc349081150290604051600060405180830381858888f193505050501580156105ce573d6000803e3d6000fd5b507f171011172a05babdafffeb4c3cb97a07f0e1e7a0538eab4f4331336fb76fef058134604051610600929190610f3e565b60405180910390a15050565b600081519050919050565b600082825260208201905092915050565b6000819050602082019050919050565b7f4e487b7100000000000000000000000000000000000000000000000000000000600052602160045260246000fd5b6004811061067857610677610638565b5b50565b600081905061068982610667565b919050565b60006106998261067b565b9050919050565b6106a98161068e565b82525050565b60008115159050919050565b6106c4816106af565b82525050565b600081519050919050565b600082825260208201905092915050565b60005b838110156107045780820151818401526020810190506106e9565b83811115610713576000848401525b50505050565b6000601f19601f8301169050919050565b6000610735826106ca565b61073f81856106d5565b935061074f8185602086016106e6565b61075881610719565b840191505092915050565b600073ffffffffffffffffffffffffffffffffffffffff82169050919050565b600061078e82610763565b9050919050565b61079e81610783565b82525050565b60006080830160008301516107bc60008601826106a0565b5060208301516107cf60208601826106bb565b50604083015184820360408601526107e7828261072a565b91505060608301516107fc6060860182610795565b508091505092915050565b600061081383836107a4565b905092915050565b6000602082019050919050565b60006108338261060c565b61083d8185610617565b93508360208202850161084f85610628565b8060005b8581101561088b578484038952815161086c8582610807565b94506108778361081b565b925060208a01995050600181019050610853565b50829750879550505050505092915050565b600060208201905081810360008301526108b78184610828565b905092915050565b600080fd5b600080fd5b6000819050919050565b6108dc816108c9565b81146108e757600080fd5b50565b6000813590506108f9816108d3565b92915050565b600060208284031215610915576109146108bf565b5b6000610923848285016108ea565b91505092915050565b6109358161068e565b82525050565b610944816106af565b82525050565b600082825260208201905092915050565b6000610966826106ca565b610970818561094a565b93506109808185602086016106e6565b61098981610719565b840191505092915050565b61099d81610783565b82525050565b60006080820190506109b8600083018761092c565b6109c5602083018661093b565b81810360408301526109d7818561095b565b90506109e66060830184610994565b95945050505050565b600481106109fc57600080fd5b50565b600081359050610a0e816109ef565b92915050565b610a1d816106af565b8114610a2857600080fd5b50565b600081359050610a3a81610a14565b92915050565b600080fd5b600080fd5b600080fd5b60008083601f840112610a6557610a64610a40565b5b8235905067ffffffffffffffff811115610a8257610a81610a45565b5b602083019150836001820283011115610a9e57610a9d610a4a565b5b9250929050565b60008060008060608587031215610abf57610abe6108bf565b5b6000610acd878288016109ff565b9450506020610ade87828801610a2b565b935050604085013567ffffffffffffffff811115610aff57610afe6108c4565b5b610b0b87828801610a4f565b925092505092959194509250565b7f4e487b7100000000000000000000000000000000000000000000000000000000600052602260045260246000fd5b60006002820490506001821680610b6057607f821691505b602082108103610b7357610b72610b19565b5b50919050565b7f4e487b7100000000000000000000000000000000000000000000000000000000600052604160045260246000fd5b60008190508160005260206000209050919050565b60006020601f8301049050919050565b600082821b905092915050565b600060088302610c0a7fffffffffffffffffffffffffffffffffffffffffffffffffffffffffffffffff82610bcd565b610c148683610bcd565b95508019841693508086168417925050509392505050565b6000819050919050565b6000610c51610c4c610c47846108c9565b610c2c565b6108c9565b9050919050565b6000819050919050565b610c6b83610c36565b610c7f610c7782610c58565b848454610bda565b825550505050565b600090565b610c94610c87565b610c9f818484610c62565b505050565b5b81811015610cc357610cb8600082610c8c565b600181019050610ca5565b5050565b601f821115610d0857610cd981610ba8565b610ce284610bbd565b81016020851015610cf1578190505b610d05610cfd85610bbd565b830182610ca4565b50505b505050565b600082821c905092915050565b6000610d2b60001984600802610d0d565b1980831691505092915050565b6000610d448383610d1a565b9150826002028217905092915050565b610d5d826106ca565b67ffffffffffffffff811115610d7657610d75610b79565b5b610d808254610b48565b610d8b828285610cc7565b600060209050601f831160018114610dbe5760008415610dac578287015190505b610db68582610d38565b865550610e1e565b601f198416610dcc86610ba8565b60005b82811015610df457848901518255600182019150602085019450602081019050610dcf565b86831015610e115784890151610e0d601f891682610d1a565b8355505b6001600288020188555050505b505050505050565b6000608083016000830151610e3e60008601826106a0565b506020830151610e5160208601826106bb565b5060408301518482036040860152610e69828261072a565b9150506060830151610e7e6060860182610795565b508091505092915050565b60006020820190508181036000830152610ea38184610e26565b905092915050565b7f4e487b7100000000000000000000000000000000000000000000000000000000600052603260045260246000fd5b6000610ef5610ef0610eeb84610763565b610c2c565b610763565b9050919050565b6000610f0782610eda565b9050919050565b6000610f1982610efc565b9050919050565b610f2981610f0e565b82525050565b610f38816108c9565b82525050565b6000604082019050610f536000830185610f20565b610f606020830184610f2f565b939250505056fea26469706673582212204b03223d28ab1209e68f13cb0bfe2b2627bd149e1e62c0f11281d4ac43f7377164736f6c634300080f0033",
  "linkReferences": {},
  "deployedLinkReferences": {}
}