{
  "_format": "hh-sol-artifact-1",
  "contractName": "Keyboards",
  "sourceName": "contracts/Keyboards.sol",
  "abi": [
    {
      "inputs": [
        {
          "internalType": "string",
          "name": "_description",
          "type": "string"
        }
      ],
      "name": "create",
      "outputs": [],
      "stateMutability": "nonpayable",
      "type": "function"
    },
    {
      "inputs": [
        {
          "internalType": "uint256",
          "name": "",
          "type": "uint256"
        }
      ],
      "name": "createdKeyboards",
      "outputs": [
        {
          "internalType": "string",
          "name": "",
          "type": "string"
        }
      ],
      "stateMutability": "view",
      "type": "function"
    },
    {
      "inputs": [],
      "name": "getKeyboards",
      "outputs": [
        {
          "internalType": "string[]",
          "name": "",
          "type": "string[]"
        }
      ],
      "stateMutability": "view",
      "type": "function"
    }
  ],
  "bytecode": "0x608060405234801561001057600080fd5b506108cb806100206000396000f3fe608060405234801561001057600080fd5b50600436106100415760003560e01c806352810aa114610046578063778bc84714610064578063b6a46b3b14610094575b600080fd5b61004e6100b0565b60405161005b91906103d2565b60405180910390f35b61007e60048036038101906100799190610434565b610189565b60405161008b91906104ab565b60405180910390f35b6100ae60048036038101906100a99190610532565b610235565b005b60606000805480602002602001604051908101604052809291908181526020016000905b828210156101805783829060005260206000200180546100f3906105ae565b80601f016020809104026020016040519081016040528092919081815260200182805461011f906105ae565b801561016c5780601f106101415761010080835404028352916020019161016c565b820191906000526020600020905b81548152906001019060200180831161014f57829003601f168201915b5050505050815260200190600101906100d4565b50505050905090565b6000818154811061019957600080fd5b9060005260206000200160009150905080546101b4906105ae565b80601f01602080910402602001604051908101604052809291908181526020018280546101e0906105ae565b801561022d5780601f106102025761010080835404028352916020019161022d565b820191906000526020600020905b81548152906001019060200180831161021057829003601f168201915b505050505081565b60008282909180600181540180825580915050600190039060005260206000200160009091929091929091929091925091826102729291906107c5565b505050565b600081519050919050565b600082825260208201905092915050565b6000819050602082019050919050565b600081519050919050565b600082825260208201905092915050565b60005b838110156102dd5780820151818401526020810190506102c2565b838111156102ec576000848401525b50505050565b6000601f19601f8301169050919050565b600061030e826102a3565b61031881856102ae565b93506103288185602086016102bf565b610331816102f2565b840191505092915050565b60006103488383610303565b905092915050565b6000602082019050919050565b600061036882610277565b6103728185610282565b93508360208202850161038485610293565b8060005b858110156103c057848403895281516103a1858261033c565b94506103ac83610350565b925060208a01995050600181019050610388565b50829750879550505050505092915050565b600060208201905081810360008301526103ec818461035d565b905092915050565b600080fd5b600080fd5b6000819050919050565b610411816103fe565b811461041c57600080fd5b50565b60008135905061042e81610408565b92915050565b60006020828403121561044a576104496103f4565b5b60006104588482850161041f565b91505092915050565b600082825260208201905092915050565b600061047d826102a3565b6104878185610461565b93506104978185602086016102bf565b6104a0816102f2565b840191505092915050565b600060208201905081810360008301526104c58184610472565b905092915050565b600080fd5b600080fd5b600080fd5b60008083601f8401126104f2576104f16104cd565b5b8235905067ffffffffffffffff81111561050f5761050e6104d2565b5b60208301915083600182028301111561052b5761052a6104d7565b5b9250929050565b60008060208385031215610549576105486103f4565b5b600083013567ffffffffffffffff811115610567576105666103f9565b5b610573858286016104dc565b92509250509250929050565b7f4e487b7100000000000000000000000000000000000000000000000000000000600052602260045260246000fd5b600060028204905060018216806105c657607f821691505b6020821081036105d9576105d861057f565b5b50919050565b600082905092915050565b7f4e487b7100000000000000000000000000000000000000000000000000000000600052604160045260246000fd5b60008190508160005260206000209050919050565b60006020601f8301049050919050565b600082821b905092915050565b60006008830261067b7fffffffffffffffffffffffffffffffffffffffffffffffffffffffffffffffff8261063e565b610685868361063e565b95508019841693508086168417925050509392505050565b6000819050919050565b60006106c26106bd6106b8846103fe565b61069d565b6103fe565b9050919050565b6000819050919050565b6106dc836106a7565b6106f06106e8826106c9565b84845461064b565b825550505050565b600090565b6107056106f8565b6107108184846106d3565b505050565b5b81811015610734576107296000826106fd565b600181019050610716565b5050565b601f8211156107795761074a81610619565b6107538461062e565b81016020851015610762578190505b61077661076e8561062e565b830182610715565b50505b505050565b600082821c905092915050565b600061079c6000198460080261077e565b1980831691505092915050565b60006107b5838361078b565b9150826002028217905092915050565b6107cf83836105df565b67ffffffffffffffff8111156107e8576107e76105ea565b5b6107f282546105ae565b6107fd828285610738565b6000601f83116001811461082c576000841561081a578287013590505b61082485826107a9565b86555061088c565b601f19841661083a86610619565b60005b828110156108625784890135825560018201915060208501945060208101905061083d565b8683101561087f578489013561087b601f89168261078b565b8355505b6001600288020188555050505b5050505050505056fea2646970667358221220a5d325d41738159f6233ce35c5defc5643c1a7e42677d33003d72f31eb500a6364736f6c634300080f0033",
  "linkReferences": {},
  "deployedLinkReferences": {}
}