{
  "_format": "hh-sol-artifact-1",
  "contractName": "Keyboards",
  "sourceName": "contracts/Keyboards.sol",
  "abi": [
    {
      "inputs": [
        {
          "internalType": "enum Keyboards.KeyboardKind",
          "name": "_kind",
          "type": "uint8"
        },
        {
          "internalType": "bool",
          "name": "_isPBT",
          "type": "bool"
        },
        {
          "internalType": "string",
          "name": "_filter",
          "type": "string"
        }
      ],
      "name": "create",
      "outputs": [],
      "stateMutability": "nonpayable",
      "type": "function"
    },
    {
      "inputs": [
        {
          "internalType": "uint256",
          "name": "",
          "type": "uint256"
        }
      ],
      "name": "createdKeyboards",
      "outputs": [
        {
          "internalType": "enum Keyboards.KeyboardKind",
          "name": "kind",
          "type": "uint8"
        },
        {
          "internalType": "bool",
          "name": "isPBT",
          "type": "bool"
        },
        {
          "internalType": "string",
          "name": "filter",
          "type": "string"
        }
      ],
      "stateMutability": "view",
      "type": "function"
    },
    {
      "inputs": [],
      "name": "getKeyboards",
      "outputs": [
        {
          "components": [
            {
              "internalType": "enum Keyboards.KeyboardKind",
              "name": "kind",
              "type": "uint8"
            },
            {
              "internalType": "bool",
              "name": "isPBT",
              "type": "bool"
            },
            {
              "internalType": "string",
              "name": "filter",
              "type": "string"
            }
          ],
          "internalType": "struct Keyboards.Keyboard[]",
          "name": "",
          "type": "tuple[]"
        }
      ],
      "stateMutability": "view",
      "type": "function"
    }
  ],
  "bytecode": "0x608060405234801561001057600080fd5b50610bc6806100206000396000f3fe608060405234801561001057600080fd5b50600436106100415760003560e01c806352810aa114610046578063778bc84714610064578063d80ad43114610096575b600080fd5b61004e6100b2565b60405161005b9190610624565b60405180910390f35b61007e60048036038101906100799190610686565b6101f9565b60405161008d9392919061071b565b60405180910390f35b6100b060048036038101906100ab919061080f565b6102d5565b005b60606000805480602002602001604051908101604052809291908181526020016000905b828210156101f057838290600052602060002090600202016040518060600160405290816000820160009054906101000a900460ff16600381111561011e5761011d610413565b5b60038111156101305761012f610413565b5b81526020016000820160019054906101000a900460ff1615151515815260200160018201805461015f906108b2565b80601f016020809104026020016040519081016040528092919081815260200182805461018b906108b2565b80156101d85780601f106101ad576101008083540402835291602001916101d8565b820191906000526020600020905b8154815290600101906020018083116101bb57829003601f168201915b505050505081525050815260200190600101906100d6565b50505050905090565b6000818154811061020957600080fd5b90600052602060002090600202016000915090508060000160009054906101000a900460ff16908060000160019054906101000a900460ff1690806001018054610252906108b2565b80601f016020809104026020016040519081016040528092919081815260200182805461027e906108b2565b80156102cb5780601f106102a0576101008083540402835291602001916102cb565b820191906000526020600020905b8154815290600101906020018083116102ae57829003601f168201915b5050505050905083565b600060405180606001604052808660038111156102f5576102f4610413565b5b8152602001851515815260200184848080601f016020809104026020016040519081016040528093929190818152602001838380828437600081840152601f19601f820116905080830192505050505050508152509050600081908060018154018082558091505060019003906000526020600020906002020160009091909190915060008201518160000160006101000a81548160ff021916908360038111156103a3576103a2610413565b5b021790555060208201518160000160016101000a81548160ff02191690831515021790555060408201518160010190816103dd9190610abe565b5050505050505050565b600081519050919050565b600082825260208201905092915050565b6000819050602082019050919050565b7f4e487b7100000000000000000000000000000000000000000000000000000000600052602160045260246000fd5b6004811061045357610452610413565b5b50565b600081905061046482610442565b919050565b600061047482610456565b9050919050565b61048481610469565b82525050565b60008115159050919050565b61049f8161048a565b82525050565b600081519050919050565b600082825260208201905092915050565b60005b838110156104df5780820151818401526020810190506104c4565b838111156104ee576000848401525b50505050565b6000601f19601f8301169050919050565b6000610510826104a5565b61051a81856104b0565b935061052a8185602086016104c1565b610533816104f4565b840191505092915050565b6000606083016000830151610556600086018261047b565b5060208301516105696020860182610496565b50604083015184820360408601526105818282610505565b9150508091505092915050565b600061059a838361053e565b905092915050565b6000602082019050919050565b60006105ba826103e7565b6105c481856103f2565b9350836020820285016105d685610403565b8060005b8581101561061257848403895281516105f3858261058e565b94506105fe836105a2565b925060208a019950506001810190506105da565b50829750879550505050505092915050565b6000602082019050818103600083015261063e81846105af565b905092915050565b600080fd5b600080fd5b6000819050919050565b61066381610650565b811461066e57600080fd5b50565b6000813590506106808161065a565b92915050565b60006020828403121561069c5761069b610646565b5b60006106aa84828501610671565b91505092915050565b6106bc81610469565b82525050565b6106cb8161048a565b82525050565b600082825260208201905092915050565b60006106ed826104a5565b6106f781856106d1565b93506107078185602086016104c1565b610710816104f4565b840191505092915050565b600060608201905061073060008301866106b3565b61073d60208301856106c2565b818103604083015261074f81846106e2565b9050949350505050565b6004811061076657600080fd5b50565b60008135905061077881610759565b92915050565b6107878161048a565b811461079257600080fd5b50565b6000813590506107a48161077e565b92915050565b600080fd5b600080fd5b600080fd5b60008083601f8401126107cf576107ce6107aa565b5b8235905067ffffffffffffffff8111156107ec576107eb6107af565b5b602083019150836001820283011115610808576108076107b4565b5b9250929050565b6000806000806060858703121561082957610828610646565b5b600061083787828801610769565b945050602061084887828801610795565b935050604085013567ffffffffffffffff8111156108695761086861064b565b5b610875878288016107b9565b925092505092959194509250565b7f4e487b7100000000000000000000000000000000000000000000000000000000600052602260045260246000fd5b600060028204905060018216806108ca57607f821691505b6020821081036108dd576108dc610883565b5b50919050565b7f4e487b7100000000000000000000000000000000000000000000000000000000600052604160045260246000fd5b60008190508160005260206000209050919050565b60006020601f8301049050919050565b600082821b905092915050565b6000600883026109747fffffffffffffffffffffffffffffffffffffffffffffffffffffffffffffffff82610937565b61097e8683610937565b95508019841693508086168417925050509392505050565b6000819050919050565b60006109bb6109b66109b184610650565b610996565b610650565b9050919050565b6000819050919050565b6109d5836109a0565b6109e96109e1826109c2565b848454610944565b825550505050565b600090565b6109fe6109f1565b610a098184846109cc565b505050565b5b81811015610a2d57610a226000826109f6565b600181019050610a0f565b5050565b601f821115610a7257610a4381610912565b610a4c84610927565b81016020851015610a5b578190505b610a6f610a6785610927565b830182610a0e565b50505b505050565b600082821c905092915050565b6000610a9560001984600802610a77565b1980831691505092915050565b6000610aae8383610a84565b9150826002028217905092915050565b610ac7826104a5565b67ffffffffffffffff811115610ae057610adf6108e3565b5b610aea82546108b2565b610af5828285610a31565b600060209050601f831160018114610b285760008415610b16578287015190505b610b208582610aa2565b865550610b88565b601f198416610b3686610912565b60005b82811015610b5e57848901518255600182019150602085019450602081019050610b39565b86831015610b7b5784890151610b77601f891682610a84565b8355505b6001600288020188555050505b50505050505056fea2646970667358221220a301b459f9ad92ebc572112c4f6cf91ee5a7311b7af9704ccc7fba2800764bba64736f6c634300080f0033",
  "linkReferences": {},
  "deployedLinkReferences": {}
}